:1000000012C021C020C01FC01EC01DC01CC01BC00C
:100010001AC019C018C02BC316C015C014C013C015
:1000200012C011C010C011241FBECFE5D4E0DEBF46
:10003000CDBF12E0A0E6B0E001C01D92A13BB10728
:10004000E1F716D059C3DCCF27E627B9282F392F7F
:10005000F90126EF26B9349BFECF84B195B18050CB
:1000600090488193919361507040A1F716B808951C
:10007000CF92DF92EF92FF920F931F93CF93DF9374
:1000800082E081BB83E08EBD81E691E060E111D327
:1000900080916101833769F18737B1F781E791E09A
:1000A00060E470E0D1DFC1E7D1E089919991A0E0EF
:1000B000B0E080509048AF4FBF4F2AE0B595A7956C
:1000C000979587952A95D1F77C0100E010E080E2B2
:1000D00090E061E086D20F5F1F4F0E151F05B8F349
:1000E0008AE290E061E07DD281E0C13FD807E9F685
:1000F000CBCF81E791E060E470E0A6DF1DBC1CBCC3
:1001000081E791E061E670E0CAD08CB59DB51DBC79
:100110001CBC81E690E0F2D08CB59DB51DBC1CBC2A
:1001200081E690E061EF71E0B3D18CB59DB5C1EF90
:10013000D1E089812296C82EC694DD2400E010E02B
:1001400006C08AE290E061E04CD20F5F1F4F0C15B1
:100150001D05B8F382E0C133D80759F795CF3D0AA2
:10016000850A5E0BC60CB80E311129149A177C1B38
:10017000C41F68245C29962E0634A139583F1E45B9
:10018000E34A9A503556A65BDF60D465786AC06E44
:10019000A17212760B79837B757DDD7EB67FFE7F43
:1001A000B67FDD7E757D837B0B791276A172C06E82
:1001B000786AD465DF60A65B35569A50E34A1E45DF
:1001C000583FA1390634962E5C296824C41F7C1B35
:1001D0009A1729143111B80EC60C5E0B850AFF7FE1
:1001E0000000617F8B0C897DF8187C7A272540768A
:1001F000FB30E170563C6C6A1C47F1623351815A06
:10020000815A3351F1621C476C6A563CE170FB30F5
:10021000407627257C7AF818897D8B0C617F000059
:10022000FE7F75F3617F08E7897DD9DA7C7A05CF97
:100230004076AAC3E170E4B86C6ACDAEF1627FA5E6
:10024000815A0F9D335194951C471F8F563CC0898E
:10025000FB30848527257782F8189F808B0C00005F
:1002600080004000C0002000A0006000E0001000FE
:1002700090005000D0003000B0007000F000080086
:1002800088004800C8002800A8006800E80018009E
:1002900098005800D8003800B8007800F8003F9265
:1002A0002F921F930F93DF93CF93DC01EB019927DC
:1002B000EEE5F1E000E410E0259135914D915D917E
:1002C000B503B0012C031001691FBC03790B300C7E
:1002D000611D791FDA03790B300C611D791F699359
:1002E0007993699379930150104031F7CF91DF9161
:1002F0000F911F912F903F90112408953F922F92BC
:100300005F924F927F926F929F928F92BF92AF9225
:10031000DF92CF92FF92EF921F930F93DF93CF93D1
:10032000FC0181E090E0A0E2B0E004E0809F600189
:10033000909FD00C7C019F938F93EF01A09FC00DE5
:10034000D11DB09FD00DFF93EF93BB24AA24992712
:10035000008111811595079568817981759567955B
:10036000A801061B170B460F571F4193519320817D
:100370003181359527956A817B8175956795A901AE
:10038000261B370B460F571F419351930F01EEED7C
:10039000F1E0EA0DFB1D4591559165917591F001D4
:1003A000950320010C031001491E9C03590A300CCF
:1003B000411C591ED803590A300C411C591EB70361
:1003C00040012E033001891EBE03990A700C811C66
:1003D000991EFA03990A700C811C991E260C371C71
:1003E000481C591C49925992B50320012C03100155
:1003F000491EBC03590A300C411C591EDA03590A24
:10040000300C411C591E970340010E033001891E18
:100410009E03990A700C811C991EF803990A700CAE
:10042000811C991E26183708480859084992599284
:10043000AC0CBD1CA7FE8CCF04E0A09FC00DD11D4D
:10044000E00DF11DB09FD00DF00D81E0E81AF90A22
:1004500009F07BCFEF91FF918F919F91880F991FAA
:10046000B695A795109609F060CFCF91DF910F91C7
:100470001F91EF90FF90CF90DF90AF90BF908F9043
:100480009F906F907F904F905F902F903F90089536
:100490003F922F925F924F927F926F929F928F9294
:1004A000BF92AF921F930F93DF93CF935C01EB0149
:1004B000EEE5F2E0992700E210E0A591B591AA0DD2
:1004C000BB1D2D913D914D915D91B30320012A03F8
:1004D0001001491EBA03590A300C411C591EBA03B7
:1004E000590A300C411C591ED50340014C03300100
:1004F000891EDC03990A700C811C991EDC03990A81
:10050000700C811C991E260C371C481C591C662433
:1005100077248824992421E030E04427552770E18E
:10052000220C331C441C551C661C771C881C991C0F
:10053000220C331C441C551C661C771C881C991CFF
:100540002AF4620E731E841E951E04C0621A730A7A
:10055000840A950A220F331F441F287F256097FCC9
:1005600022507A95E9F64695379527954695379521
:100570002795299339930150104009F09ECFCF91D0
:10058000DF910F911F91AF90BF908F909F906F90D0
:100590007F904F905F902F903F9011240895AC0171
:1005A0009927D703F0014E03D001E91FDE03F90BB1
:1005B000B00DE11DF91FFC03F90BB00DE11DF91F92
:1005C000CF0111240895899A089588E98AB986E8A7
:1005D00080BD10BC87E689B978940895F4DFF5DF13
:1005E0000895FC0105C05D9BFECF81918CB96150DF
:1005F0006623C9F70895DF93CF93CDB7DEB7289769
:100600000FB6F894DEBF0FBECDBFFE01319667E096
:1006100021E030E090E0A901062E02C0440F551FF2
:100620000A94E2F7482359231416150614F441E3FB
:1006300001C040E34193662311F06150ECCFCE013D
:10064000019668E0CEDF28960FB6F894DEBF0FBEA5
:10065000CDBFCF91DF910895282F392FF90103C025
:100660005D9BFECF8CB981918617D1F708951F92BB
:100670000F920FB60F9211248F939F93EF93FF93D6
:100680008BB19CB180916000803851F08091600006
:10069000E82FF0E0EF5CFD4F90838F5F8093600068
:1006A000FF91EF919F918F910F900FBE0F901F9030
:1006B0001895209160002223E9F0F89467FD60E826
:1006C00020916000621710F060916000462F0BC00F
:1006D0004150242F30E0F901EF5CFD4F5081280F8D
:1006E000391FF9015083442399F7109260007894E0
:0C06F000862F089580E00895F894FFCF55
:00000001FF
