:100000000C942A000C9447000C9447000C94470071
:100010000C9447000C9447000C9447000C94470044
:100020000C9447000C9447000C9447000C948904EE
:100030000C9447000C9447000C9447000C94470024
:100040000C9447000C9447000C9447000C94470014
:100050000C94470011241FBECFE5D4E0DEBFCDBF16
:1000600010E0A0E6B0E0E0EBF9E002C005900D92F0
:10007000AE38B107D9F714E0AEE8B0E001C01D9288
:10008000AF33B107E1F70E9432030C94D6040C940D
:1000900000003D0A4F0A850AE00A5E0B010CC60CFF
:1000A000AE0DB80EE40F31119D122914D3159A1715
:1000B0007D197C1B931DC41F0B226824D9265C2943
:1000C000F12B962E48310634CF36A1397A3C583F71
:1000D0003A421E450148E34AC14D9A506C53355689
:1000E000F458A65B4A5EDF606363D4653168786A62
:1000F000A86CC06EBE70A172687412769E770B7980
:10010000577A837B8D7C757D3B7EDD7E5B7FB67F02
:10011000EC7FFE7FEC7FB67F5B7FDD7E3B7E757D77
:100120008D7C837B577A0B799E7712766874A172E7
:10013000BE70C06EA86C786A3168D4656363DF6096
:100140004A5EA65BF45835566C539A50C14DE34A4B
:1001500001481E453A42583F7A3CA139CF36063411
:100160004831962EF12B5C29D92668240B22C41F16
:10017000931D7C1B7E199A17D31529149D123111DA
:10018000E40FB80EAE0DC60C010C5E0BE00A850A3A
:100190004F0AFF7F0000D77F4706617F8B0C9C7E54
:1001A000C712897DF818297C191F7C7A2725837846
:1001B0001E2B4076FB30B573B936E170563CC96DE5
:1001C000CD416C6A1C47CE663F4CF1623351D65E1E
:1001D000F455815A815AF455D65E3351F1623F4C41
:1001E000CE661C476C6ACD41C96D563CE170B9368C
:1001F000B573FB3040761E2B837827257C7A191F38
:10020000297CF818897DC7129C7E8B0C617F47067C
:10021000D77F0000FE7FB9F9D77F75F3617F39ED95
:100220009C7E08E7897DE7E0297CD9DA7C7AE2D4F4
:10023000837805CF407647C9B573AAC3E17033BE52
:10024000C96DE4B86C6AC1B3CE66CDAEF1620CAADA
:10025000D65E7FA5815A2AA1F5550F9D335132995B
:100260003F4C94951C473792CD411F8F563C4C8C88
:10027000B936C089FB307D871E2B84852725D8831E
:10028000191F7782F8186481C7129F808B0C298010
:100290004706000000018000800140004001C000CE
:1002A000C00120002001A000A00160006001E0006A
:1002B000E001100010019000900150005001D000AA
:1002C000D00130003001B000B00170007001F000CA
:1002D000F001080008018800880148004801C800B2
:1002E000C80128002801A800A80168006801E800EA
:1002F000E801180018019800980158005801D8002A
:10030000D80138003801B800B80178007801F80049
:10031000F8013F922F921F930F93DF93CF93DC014D
:10032000EB019927E2E9F0E000E810E02591359132
:100330004D915D91B503B0012C031001691FBC0301
:10034000790B300C611D791FDA03790B300C611DBC
:10035000791F69937993699379930150104031F72C
:10036000CF91DF910F911F912F903F90112408950D
:100370003F922F925F924F927F926F929F928F92B5
:10038000BF92AF92DF92CF92FF92EF921F930F93A3
:10039000DF93CF93FC0181E090E0A0E4B0E004E0C3
:1003A000809F6001909FD00C7C019F938F93EF0101
:1003B000A09FC00DD11DB09FD00DFF93EF93BB2424
:1003C000AA24992700811181159507956881798163
:1003D00075956795A801061B170B460F571F41938C
:1003E000519320813181359527956A817B8175955F
:1003F0006795A901261B370B460F571F4193519351
:100400000F01E2E9F1E0EA0DFB1D4591559165917F
:100410007591F001950320010C031001491E9C0306
:10042000590A300C411C591ED803590A300C411C82
:10043000591EB70340012E033001891EBE03990ADD
:10044000700C811C991EFA03990A700C811C991E6C
:10045000260C371C481C591C49925992B50320019F
:100460002C031001491EBC03590A300C411C591EB3
:10047000DA03590A300C411C591E970340010E0340
:100480003001891E9E03990A700C811C991EF80385
:10049000990A700C811C991E2618370848085908BB
:1004A00049925992AC0CBD1CB0FE8CCF04E0A09FC9
:1004B000C00DD11DE00DF11DB09FD00DF00D81E0FC
:1004C000E81AF90A09F07BCFEF91FF918F919F9184
:1004D000880F991FB695A795109609F060CFCF9118
:1004E000DF910F911F91EF90FF90CF90DF90AF9031
:1004F000BF908F909F906F907F904F905F902F90C4
:100500003F9008953F922F925F924F927F926F9209
:100510009F928F92BF92AF921F930F93DF93CF93CF
:100520005C01EB01E2E9F2E0992700E410E0A5911B
:10053000B591AA0DBB1D2D913D914D915D91B303D8
:1005400020012A031001491EBA03590A300C411C2C
:10055000591EBA03590A300C411C591ED5034001DB
:100560004C033001891EDC03990A700C811C991E12
:10057000DC03990A700C811C991E260C371C481C40
:10058000591C662477248824992421E030E04427EC
:10059000552770E1220C331C441C551C661C771C2B
:1005A000881C991C220C331C441C551C661C771C8F
:1005B000881C991C2AF4620E731E841E951E04C0AA
:1005C000621A730A840A950A220F331F441F287F78
:1005D000256097FC22507A95E9F646953795279540
:1005E000469537952795299339930150104009F086
:1005F0009ECFCF91DF910F911F91AF90BF908F90C1
:100600009F906F907F904F905F902F903F9011241C
:100610000895AC019927D703F0014E03D001E91FDB
:10062000DE03F90BB00DE11DF91FFC03F90BB00D52
:10063000E11DF91FCF011124089527E627B927E40A
:1006400027B9E82FF92F25EF26B9349BFECF84B1C7
:1006500095B1805092408193919361507040A1F781
:1006600016B808958F929F92AF92BF92CF92DF9269
:10067000EF92FF920F931F93DF93CF93CDB7DEB727
:100680002A970FB6F894DEBF0FBECDBF0E94290493
:1006900080E690E06AE20E947D0488E790E06AE2EA
:1006A0000E947D044E010894811C911C9BE0A92EA0
:1006B000B12CAC0EBD1E8FE992E060E870E00E94A4
:1006C0001D031DBC1CBC8FE992E06FE870E00E9426
:1006D00089018FE890E00E94B8018FE890E06FE90F
:1006E00073E00E948202D401E3E8F0E08AE0019026
:1006F0000D928150E1F78DE790E062E00E946C047A
:100700008DE790E062E00E946C046401D601ED91F7
:100710006D01F0E0EE0FFF1FE156FC4F00811181EB
:100720008DE790E062E00E946C040115110509F468
:1007300043C00330110508F44DC00530110508F41D
:100740004DC00830110508F44DC00B30110508F4F8
:100750004DC00F30110508F44DC00531110508F4E6
:100760004DC00F31110508F44DC00833110508F4D0
:100770004DC00734110508F451C00536110508F4C1
:1007800049C00838110508F455C00C39110508F4A2
:100790004DC0053B110508F445C00EE0E02EF12CDC
:1007A00000E010E080E890E061E00E946C040F5FE0
:1007B0001F4F0E151F05B0F3CA14DB0409F0A6CFB6
:1007C0008FE798E3A1E081509040A040E1F700C09E
:1007D000000071CF11E0E12EF12CE2CFB2E0EB2E60
:1007E000F12CDECFA3E0EA2EF12CDACFF4E0EF2EED
:1007F000F12CD6CFE5E0EE2EF12CD2CF76E0E72E2D
:10080000F12CCECF67E0E62EF12CCACF58E0E52ED2
:10081000F12CC6CF3AE0E32EF12CC2CF49E0E42E12
:10082000F12CBECF8DE0E82EF12CBACF9CE0E92E62
:10083000F12CB6CF2BE0E22EF12CB2CF899A08959D
:1008400088E98AB986E880BD10BC88E089B97894C7
:100850000895899A88E98AB986E880BD10BC88E045
:1008600089B978940895DF93CF93CDB7DEB72897F1
:100870000FB6F894DEBF0FBECDBF90E0FE013196FB
:10088000DF0167E041E050E005C021E32D936623DE
:1008900089F061509A01062E02C0220F331F0A947C
:1008A000E2F728233923121613067CF320E32D9355
:1008B000662379F7CE0109965D9BFECF21912CB975
:1008C000E817F907C9F728960FB6F894DEBF0FBEF0
:1008D000CDBFCF91DF910895662371F0E82FF92FF6
:1008E000CF0101966150860F911D5D9BFECF219136
:1008F0002CB9E817F907C9F70895FC0120812617DC
:1009000039F031965D9BFECF2CB921912617D1F796
:1009100008951F920F920FB60F9211248F939F93F9
:10092000EF93FF938BB19CB180918E00803251F098
:1009300080918E00E82FF0E0E15EFB4F90838F5FA7
:1009400080938E00FF91EF919F918F910F900FBE3A
:100950000F901F90189520918E00222329F1F89472
:100960006132E0F420918E006217A8F4662371F0E2
:10097000462F4150242F30E0F901E15EFB4F5081BA
:10098000280F391FF90150834150A0F710928E00B3
:100990007894862F089560918E00E8CF60E22091D0
:1009A0008E00621718F3F7CF80E00895F894FFCF18
:1009B0000D0A4646542073616D706C652070726F2D
:1009C0006772616D0D0A2A000D0A3E2A000A0D00A9
:0E09D0002A2A0001020305070A101D393E0005
:00000001FF
