:100000000C942A000C9447000C9447000C94470071
:100010000C9447000C9447000C9447000C94470044
:100020000C941F040C9447000C9447000C9410058A
:100030000C9447000C9447000C9447000C94470024
:100040000C9447000C9447000C9447000C94470014
:100050000C94470011241FBECFE5D4E0DEBFCDBF16
:1000600010E0A0E6B0E0EEEBFAE002C005900D92E1
:10007000AA38B107D9F714E0AAE8B0E001C01D9290
:10008000AB33B107E1F70E946D040C945D050C944D
:1000900000003D0A4F0A850AE00A5E0B010CC60CFF
:1000A000AE0DB80EE40F31119D122914D3159A1715
:1000B0007D197C1B931DC41F0B226824D9265C2943
:1000C000F12B962E48310634CF36A1397A3C583F71
:1000D0003A421E450148E34AC14D9A506C53355689
:1000E000F458A65B4A5EDF606363D4653168786A62
:1000F000A86CC06EBE70A172687412769E770B7980
:10010000577A837B8D7C757D3B7EDD7E5B7FB67F02
:10011000EC7FFE7FEC7FB67F5B7FDD7E3B7E757D77
:100120008D7C837B577A0B799E7712766874A172E7
:10013000BE70C06EA86C786A3168D4656363DF6096
:100140004A5EA65BF45835566C539A50C14DE34A4B
:1001500001481E453A42583F7A3CA139CF36063411
:100160004831962EF12B5C29D92668240B22C41F16
:10017000931D7C1B7E199A17D31529149D123111DA
:10018000E40FB80EAE0DC60C010C5E0BE00A850A3A
:100190004F0AFF7F0000D77F4706617F8B0C9C7E54
:1001A000C712897DF818297C191F7C7A2725837846
:1001B0001E2B4076FB30B573B936E170563CC96DE5
:1001C000CD416C6A1C47CE663F4CF1623351D65E1E
:1001D000F455815A815AF455D65E3351F1623F4C41
:1001E000CE661C476C6ACD41C96D563CE170B9368C
:1001F000B573FB3040761E2B837827257C7A191F38
:10020000297CF818897DC7129C7E8B0C617F47067C
:10021000D77F0000FE7FB9F9D77F75F3617F39ED95
:100220009C7E08E7897DE7E0297CD9DA7C7AE2D4F4
:10023000837805CF407647C9B573AAC3E17033BE52
:10024000C96DE4B86C6AC1B3CE66CDAEF1620CAADA
:10025000D65E7FA5815A2AA1F5550F9D335132995B
:100260003F4C94951C473792CD411F8F563C4C8C88
:10027000B936C089FB307D871E2B84852725D8831E
:10028000191F7782F8186481C7129F808B0C298010
:100290004706000000018000800140004001C000CE
:1002A000C00120002001A000A00160006001E0006A
:1002B000E001100010019000900150005001D000AA
:1002C000D00130003001B000B00170007001F000CA
:1002D000F001080008018800880148004801C800B2
:1002E000C80128002801A800A80168006801E800EA
:1002F000E801180018019800980158005801D8002A
:10030000D80138003801B800B80178007801F80049
:10031000F8013F922F921F930F93DF93CF93DC014D
:10032000EB019927E2E9F0E000E810E02591359132
:100330004D915D91B503B0012C031001691FBC0301
:10034000790B300C611D791FDA03790B300C611DBC
:10035000791F69937993699379930150104031F72C
:10036000CF91DF910F911F912F903F90112408950D
:100370003F922F925F924F927F926F929F928F92B5
:10038000BF92AF92DF92CF92FF92EF921F930F93A3
:10039000DF93CF93FC0181E090E0A0E4B0E004E0C3
:1003A000809F6001909FD00C7C019F938F93EF0101
:1003B000A09FC00DD11DB09FD00DFF93EF93BB2424
:1003C000AA24992700811181159507956881798163
:1003D00075956795A801061B170B460F571F41938C
:1003E000519320813181359527956A817B8175955F
:1003F0006795A901261B370B460F571F4193519351
:100400000F01E2E9F1E0EA0DFB1D4591559165917F
:100410007591F001950320010C031001491E9C0306
:10042000590A300C411C591ED803590A300C411C82
:10043000591EB70340012E033001891EBE03990ADD
:10044000700C811C991EFA03990A700C811C991E6C
:10045000260C371C481C591C49925992B50320019F
:100460002C031001491EBC03590A300C411C591EB3
:10047000DA03590A300C411C591E970340010E0340
:100480003001891E9E03990A700C811C991EF80385
:10049000990A700C811C991E2618370848085908BB
:1004A00049925992AC0CBD1CB0FE8CCF04E0A09FC9
:1004B000C00DD11DE00DF11DB09FD00DF00D81E0FC
:1004C000E81AF90A09F07BCFEF91FF918F919F9184
:1004D000880F991FB695A795109609F060CFCF9118
:1004E000DF910F911F91EF90FF90CF90DF90AF9031
:1004F000BF908F909F906F907F904F905F902F90C4
:100500003F9008953F922F925F924F927F926F9209
:100510009F928F92BF92AF921F930F93DF93CF93CF
:100520005C01EB01E2E9F2E0992700E410E0A5911B
:10053000B591AA0DBB1D2D913D914D915D91B303D8
:1005400020012A031001491EBA03590A300C411C2C
:10055000591EBA03590A300C411C591ED5034001DB
:100560004C033001891EDC03990A700C811C991E12
:10057000DC03990A700C811C991E260C371C481C40
:10058000591C662477248824992421E030E04427EC
:10059000552770E1220C331C441C551C661C771C2B
:1005A000881C991C220C331C441C551C661C771C8F
:1005B000881C991C2AF4620E731E841E951E04C0AA
:1005C000621A730A840A950A220F331F441F287F78
:1005D000256097FC22507A95E9F646953795279540
:1005E000469537952795299339930150104009F086
:1005F0009ECFCF91DF910F911F91AF90BF908F90C1
:100600009F906F907F904F905F902F903F9011241C
:100610000895AC019927D703F0014E03D001E91FDB
:10062000DE03F90BB00DE11DF91FFC03F90BB00D52
:10063000E11DF91FCF011124089527E627B927E40A
:1006400027B9E82FF92F25EF26B9349BFECF84B1C7
:1006500095B1805092408193919361507040A1F781
:1006600016B8089515BA82B3837082BB089518BA7C
:100670001BBA843049F1853048F08730D9F0883092
:1006800078F08830E9F0893099F008958130D1F020
:10069000813060F0823081F08330B9F7C19A0895DB
:1006A000853061F0863089F7D99A0895C49A089503
:1006B000DC9A0895DA9A0895C29A0895D89A08950E
:1006C000DB9A0895C39A0895C09A0895882391F0FB
:1006D000893088F09FEF95BB42B32EE030E0281BB5
:1006E00031098CEF90E002C0880F991F2A95E2F73C
:1006F000482B42BB089528E030E0281B31098FEFDA
:1007000090E002C0880F991F2A95E2F785BB0895F3
:100710001F93DF93CF93CDB7DEB72A970FB6F89428
:10072000DEBF0FBECDBF9E012F5F3F4FD901EFE768
:10073000F0E08AE001900D928150E1F780917D0018
:1007400090917E00AC014F5F5F4F50937E004093CD
:100750007D008A309105E8F5842F240F351FD901DB
:10076000EC91F0E0EE0FFF1FE556FC4F2081318148
:1007700021153105B1F12330310508F446C025308B
:10078000310508F444C02830310508F442C02B304C
:10079000310508F440C02F30310508F440C0253140
:1007A0003105D8F12F313105E0F128333105D8F189
:1007B00027343105D0F125363105C8F12838310507
:1007C000C0F12C393105B8F1253B3105B0F51DE0FC
:1007D00009C010927E0010927D0080E040E050E061
:1007E000BCCF10E015BA92B3937092BB0E9437034E
:1007F000812F0E9466032A960FB6F894DEBF0FBEC3
:10080000CDBFCF91DF911F91089511E0EBCF12E0A2
:10081000E9CF13E0E7CF14E0E5CF16E0E3CF15E032
:10082000E1CF17E0DFCF18E0DDCF19E0DBCF1AE032
:10083000D9CF1BE0D7CF1CE0D5CF1EE0D3CF1F927E
:100840000F920FB60F9211242F933F934F935F9304
:100850006F937F938F939F93AF93BF93EF93FF9388
:100860000E9488038FEF9FEF9DBD8CBD85E08EBDFC
:1008700089B7846089BFFF91EF91BF91AF919F913C
:100880008F917F916F915F914F913F912F910F9039
:100890000FBE0F901F9018958FEF9FEF9DBD8CBDE1
:1008A00085E08EBD89B7846089BF7894089515BAB4
:1008B0008FEF84BB82B3837082BB81B38C6F81BBAB
:1008C00088B3807E88BB87B38F6187BB8BB3807E04
:1008D0008BBB8AB38F618ABB08958FEF9FEF9DBD5D
:1008E0008CBD85E08EBD89B7846089BF78940E94F5
:1008F00057040E94B00480E690E06AE20E9404057A
:1009000088E790E06AE20E9404058BE992E060E8E3
:1009100070E00E941D038BE992E06BE870E00E949A
:1009200089018BE890E00E94B8018BE890E06BE9C8
:1009300073E00E9482028FE798E3A1E0815090402B
:10094000A040E1F700C00000E0CF899A089588E94F
:100950008AB986E880BD10BC88E089B9789408958A
:10096000899A88E98AB986E880BD10BC88E089B98F
:1009700078940895DF93CF93CDB7DEB728970FB65D
:10098000F894DEBF0FBECDBF90E0FE013196DF01CF
:1009900067E041E050E005C021E32D93662389F034
:1009A00061509A01062E02C0220F331F0A94E2F70B
:1009B00028233923121613067CF320E32D93662394
:1009C00079F7CE0109965D9BFECF21912CB9E817EE
:1009D000F907C9F728960FB6F894DEBF0FBECDBF52
:1009E000CF91DF910895662371F0E82FF92FCF01A1
:1009F00001966150860F911D5D9BFECF21912CB910
:100A0000E817F907C9F70895FC012081261739F086
:100A100031965D9BFECF2CB921912617D1F7089511
:100A20001F920F920FB60F9211248F939F93EF9303
:100A3000FF938BB19CB180918A00803251F08091FC
:100A40008A00E82FF0E0E55EFB4F90838F5F809394
:100A50008A00FF91EF919F918F910F900FBE0F90A1
:100A60001F90189520918A00222329F1F894613271
:100A7000E0F420918A006217A8F4662371F0462FF3
:100A80004150242F30E0F901E55EFB4F5081280FE3
:100A9000391FF90150834150A0F710928A007894D1
:100AA000862F089560918A00E8CF60E220918A0045
:0E0AB000621718F3F7CF80E00895F894FFCF97
:100ABE000D0A4646542073616D706C652070726F1E
:100ACE006772616D0D0A2A000D0A3E2A000A0001A6
:0A0ADE00020305070A101D393E004F
:00000001FF
